:020000040800F2
:10000000F00500206D03000807490008B34200080E
:1000100005490008C7050008295A0008000000002B
:100020000000000000000000000000004F4C00082D
:100030005D0A00080000000009490008514C000852
:100040008703000887030008870300088703000868
:100050008703000887030008870300088703000858
:100060008703000887030008870300088703000848
:100070008703000887030008870300088703000838
:10008000870300088703000887030008650A000843
:10009000E10A0008870300088703000887030008B7
:1000A0008703000887030008870300088703000808
:1000B00087030008870300088703000887030008F8
:1000C00087030008870300088703000887030008E8
:1000D00087030008870300088703000887030008D8
:1000E000870300088703000800000000870300085A
:1000F00087030008870300088703000887030008B8
:1001000087030008870300088703000887030008A7
:100110008703000887030008870300088703000897
:100120008703000887030008870300088703000887
:100130008703000887030008870300088703000877
:1001400000000000000000000000000000000000AF
:100150008703000887030008870300088703000857
:100160008703000887030008870300088703000847
:1001700087030008870300088703000800000000C9
:100180008703000887030008AD4D000887030008B7
:100190008703000887030008870300088703000817
:1001A0008703000887030008870300080000000099
:1001B00087030008870300088703000887030008F7
:1001C000870300088703000800000000000000000B
:1001D000000000000000000087030008000000008D
:1001E000000000000000000000000000000000000F
:1001F00000000000000000008703000887030008DB
:100200008703000887030008000000008703000838
:100210008703000887030008870300088703000896
:1002200087030008000000008703000800000000AA
:100230008703000887030008000000008703000808
:100240008703000887030008870300088703000866
:100250008703000887030008870300088703000856
:100260008703000887030008870300088703000846
:1002700087030008870300088703000800000000C8
:100280008703000887030008870300088703000826
:10029000000000008703000887030008000000003A
:1002A0000000000087030008870300088703000898
:1002B00087030008870300088703000887030008F6
:1002C00087030008870300088703000800F002F88E
:1002D00000F03CF80AA090E8000C82448344AAF1A4
:1002E0000107DA4501D100F031F8AFF2090EBAE8A2
:1002F0000F0013F0010F18BFFB1A43F0010318475A
:100300004859000088590000103A24BF78C878C1C5
:10031000FAD8520724BF30C830C144BF04680C600B
:10032000704700000023002400250026103A28BF53
:1003300078C1FBD8520728BF30C148BF0B60704757
:100340001FB505F031FC1FBD10B510BD00F006F95A
:100350001146FFF7F5FF05F08FFB00F024F903B419
:10036000FFF7F2FF03BC00F027F9000009488047BF
:1003700009480047FEE7FEE7FEE7FEE7FEE7FEE787
:10038000FEE7FEE7FEE7FEE704480549054A064B9F
:1003900070470000ED4C0008CD020008B8030024AF
:1003A000F0050020B8050024F001002053EA020CFB
:1003B00000F069802DE9F04B4FF00006002B1FBFC5
:1003C000B3FA83F503FA05F424FA05F65E4012BF8A
:1003D0001643B2FA82F502FA05F4C5F120051EBFF4
:1003E00022FA05FC44EA0C04203556EA044C4FEA94
:1003F000144418BF641C4FF000084FF000099042ED
:1004000071EB030C39D3002919BFB1FA81F701FA56
:1004100007F6B0FA80F700FA07F6C7F120071EBF0B
:1004200020FA07FC46EA0C062037B6FBF4FCA7EBE3
:100430000507103F07F01F0BCBF120060CFA0BFB52
:100440002CFA06F644BFB3460026202FA4BF5E4612
:100450004FF0000B5BEA060C08BF4FF0010B19EBE5
:100460000B09ABFB027C48EB0608C01B06FB02CC69
:100470000BFB03CC71EB0C01C1E70B460246414676
:100480004846BDE8F08B13B54FF000004FF0000177
:10049000AFF30080BDE81C40704710B5203AC0F0B3
:1004A0000B80B1E81850203AA0E81850B1E8185075
:1004B000A0E81850BFF4F5AF5FEA027C24BFB1E8B2
:1004C0001850A0E8185044BF18C918C0BDE8104023
:1004D0005FEA827C24BF51F8043B40F8043B08BF2C
:1004E0007047D20728BF31F8023B48BF11F8012BF3
:1004F00028BF20F8023B48BF00F8012B70474FF09F
:10050000000200B5134694469646203922BFA0E863
:100510000C50A0E80C50B1F12001BFF4F7AF09076F
:1005200028BFA0E80C5048BF0CC05DF804EB890060
:1005300028BF40F8042B08BF704748BF20F8022BA3
:1005400011F0804F18BF00F8012B704770477047BB
:1005500070470000004870478C0100207546FFF787
:10056000F9FFAE4605006946534620F00700854670
:1005700018B020B5FFF708FFBDE820404FF0000697
:100580004FF000074FF000084FF0000B21F007017B
:10059000AC46ACE8C009ACE8C009ACE8C009ACE8BE
:1005A000C0098D46704710B50446AFF30080204661
:1005B000BDE81040FFF7D3BE01491820ABBEFEE7EF
:1005C000260002007047FEE70BA11CB5D1E900210F
:1005D0000128CDE9002105D0022805D003280AD141
:1005E000FE2002E0FC2000E0FD208DF80700012144
:1005F000684600F053FA1CBDFFFFFFFFFFFFFF003E
:1006000010EE100A2DE9FC4156499FED574ADFEDE7
:10061000574A884202D3B0EE440A06E010EE100AB0
:100620005349884201DBB0EE640A10EE900A51494A
:100630009FED515ADFED515A884202D3F0EE450A40
:1006400006E010EE900A4E49884201DBF0EE650AA2
:10065000B5EEC01AF1EE10FAF0EE602ADFED496A4D
:100660009FED496A02D8B0EE461A06E011EE100A74
:100670004649884201DBB0EE661AF5EEC01AF1EE8B
:1006800010FAB0EE413A02D8F0EE461A06E011EE4A
:10069000900A3F49884201DBF1EE041A12EE100A7B
:1006A0003C49F0EE613A884202D3BBEE022A06E0F2
:1006B00012EE100A3849884201DBB3EE022A1020FC
:1006C000B0EE641AF0EE440A05F0C0F9B0EE651A17
:1006D000F0EE450AB0EE620A03460C2005F0B6F9CA
:1006E000F0EE462AB0EE661AF0EE620AB0EE430A69
:1006F00002460C2005F0AAF9B1EE041AF0EE620AE7
:10070000B0EE630A04460C2005F0A0F9B3EE021A1D
:10071000FBEE020AB0EE420A05460C2005F096F9FF
:100720001F0A06468DF8007010468DF80130290921
:100730008DF8044007014FEA051C8DF805101209D9
:100740008DF802204CEA16238DF806300121684608
:1007500047EA14228DF803208DF8076000F09EF917
:10076000BDE8FC810000BFC20000BFC20000BF4264
:100770000000BF42000034C2000034C20000344216
:10078000000034420000FA43000000000000FA4379
:100790000000A040000090C100009041012010B571
:1007A000FFF712FF642000F0EDFD9FED0A0AB0EEA6
:1007B000402AF0EE401AB0EE401AF0EE400AFFF781
:1007C0001FFF642000F0DEFDBDE810400320FFF7AE
:1007D000FBBE0000000000000BA11CB5D1E9002108
:1007E0000128CDE9002105D0022805D003280AD12F
:1007F000FE2002E0FC2000E0FD208DF80700012132
:10080000684600F089F91CBDFFFFFFFFFFFFFF00F6
:1008100010EE100A2DE9FC4156499FED574ADFEDD5
:10082000574A884202D3B0EE440A06E010EE100A9E
:100830005349884201DBB0EE640A10EE900A514938
:100840009FED515ADFED515A884202D3F0EE450A2E
:1008500006E010EE900A4E49884201DBF0EE650A90
:10086000B5EEC01AF1EE10FAF0EE602ADFED496A3B
:100870009FED496A02D8B0EE461A06E011EE100A62
:100880004649884201DBB0EE661AF5EEC01AF1EE79
:1008900010FAB0EE413A02D8F0EE461A06E011EE38
:1008A000900A3F49884201DBF1EE041A12EE100A69
:1008B0003C49F0EE613A884202D3BBEE022A06E0E0
:1008C00012EE100A3849884201DBB3EE022A1020EA
:1008D000B0EE641AF0EE440A05F0B8F8B0EE651A0E
:1008E000F0EE450AB0EE620A03460C2005F0AEF8C1
:1008F000F0EE462AB0EE661AF0EE620AB0EE430A57
:1009000002460C2005F0A2F8B1EE041AF0EE620ADD
:10091000B0EE630A04460C2005F098F8B3EE021A14
:10092000FBEE020AB0EE420A05460C2005F08EF8F6
:100930001F0A06468DF8007010468DF8013029090F
:100940008DF8044007014FEA051C8DF805101209C7
:100950008DF802204CEA16238DF8063001216846F6
:1009600047EA14228DF803208DF8076000F0D4F8D0
:10097000BDE8FC810000BFC20000BFC20000BF4252
:100980000000BF42000034C2000034C20000344204
:10099000000034420000FA43000000000000FA4367
:1009A0000000A040000090C100009041012010B55F
:1009B000FFF712FF642000F0E5FC9FED0A0AB0EE9D
:1009C000402AF0EE401AB0EE401AF0EE400AFFF76F
:1009D0001FFF642000F0D6FCBDE810400320FFF7A5
:1009E000FBBE0000000000001A4930B51A4A00247E
:1009F0004B785D1CD054E8B248701378552B26D143
:100A00000B2825D35078512806D052280BD05328D4
:100A100010D056281BD114E0D2F80200C863D2F8D7
:100A20000600086413E0D2F80200C864D2F8060099
:100A300008650CE0D2F802004864D2F80600886429
:100A400005E0D2F802004865D2F8060088654C70CF
:100A500030BD00000000002018000024704772B66E
:100A6000FEE70000014800F02DBE0000EC0100246C
:100A700010B540210446084800F050FD002809D078
:100A8000054A402104482346983A00F053FD0248A5
:100A90009838007810BD0000EC0100240F4B70B5B1
:100AA00005460820196000245C6052212A46C3E9EB
:100AB00002401C615C619C61C3E90741194601F178
:100AC000700000F0B5FC05492A4601F1700000F005
:100AD000AFFC002800D0012070BD00007C01002484
:100AE000014800F0EFBD00008C02002410B5402149
:100AF0000446084800F012FD002809D0054A4021AC
:100B000004482346EC3A00F015FD0248EC38007822
:100B100010BD00008C0200240F4B70B50546082064
:100B2000196000245C6052212A46C3E902401C611E
:100B30005C619C61C3E90741194601F1C40000F002
:100B400077FC05492A4601F1C40000F071FC002839
:100B500000D0012070BD0000C8010024F0B503687A
:100B60004FF6FC716D4C426BD3F884508D4345EACF
:100B70008205C3F88450036853F8845F068F25F418
:100B80007F0545EA06451D60836B654D9F18026829
:100B9000D2F888308B4343EA8703C2F88830026872
:100BA00052F8883F868F23F4FE0343EA064313601E
:100BB000066856F8A03FC26B8B4307EB420243EA3C
:100BC00082033360076857F8A03FB0F8406023F411
:100BD000FE0343EA06433B60D0E9103603FB0622DE
:100BE0000368D3F8B0608E4346EA8206C3F8B0606B
:100BF0000368B0F84860D3F8B07027F4FE0747EAFE
:100C00000646C3F8B060D0E91267036806FB072206
:100C1000D3F8AC608E4346EA8206C3F8AC60D0E9F4
:100C20001467036806FB0722D3F8F0608E4346EA98
:100C30008206C3F8F0600368B0F85860D3F8F0702B
:100C400027F47C1747EA0646C3F8F0600368876D0F
:100C500053F8C06F02EB47028E4346EA82011960E7
:100C60000168B0F85C20D1F8C03023F47C1343EA6B
:100C70000242C1F8C020016890F86020D1F8C0306D
:100C800023F07C5343EA0262C1F8C020416B04EBBD
:100C90008101C166826B01EB82020267C36B02EBCA
:100CA000C3024267D0E91034634302EB83028267D8
:100CB000D0E91234634302EB8302C267D0E91434F3
:100CC000634302EB8302C0F88020836D02EBC30311
:100CD000C0F88430C46D826E544303EB8403C0F8C3
:100CE0008830046E544303EB8402C0F89020AA427B
:100CF0000AD9D0F89C20032142F02002C0F89C20A1
:100D000080F898100120F0BD002200E004C1D0F866
:100D100090308B42FAD80020F0BD000000AC0040BB
:100D2000FCD30040F0B58E680C69D1E9005744EA65
:100D30000604DFB145F080452C43866ED1E906C537
:100D40004F695E4391F8203045EA0C05B1F80CC0BC
:100D5000D0F884E0002047EA0363104F1D430EEBF8
:100D6000860345EA0C45E3E8024511E044EA854480
:100D7000E3E71418155CA67894F803C094F801E032
:100D8000360445EA0C6446EA0E252C43001D10C3C8
:100D9000CC683C5D8442ECD8F0BD0000B45B000838
:100DA0002DE9F84F044601F04BF900903CB194F85E
:100DB0003500022806D0802161650020E4E0012092
:100DC000BDE8F88FC74DC74EC64918352068303684
:100DD000DFF81483DFF814938842DFF814A3DFF8F8
:100DE00014B32ED0A8422CD0B0422AD0404528D0EF
:100DF000484526D0504524D0584522D0BD4A183207
:100E000090421ED0BC4A90421BD0BB4A183290423E
:100E100017D0B94A3032904213D0B74A4832904284
:100E20000FD0B54A603290420BD0B34A783290422C
:100E300007D0B14A9032904203D0AF4AA8329042D4
:100E400009D1026822F01E0202602068426922F085
:100E50008002426103E0026822F00E02026027680D
:100E60008F4238464DD0A8424BD0B04249D0404581
:100E700047D0484545D0504543D0584541D09D4A7C
:100E8000183290423DD09C4A90423AD09A4A183249
:100E9000904236D0984A3032904232D0964A483208
:100EA00090422ED0944A603290422AD0924A7832B0
:100EB000904226D0904A9032904222D08E4AA83258
:100EC00090421ED08D4A90421BD08C4A14329042E0
:100ED00017D08A4A2832904213D0884A3C32904236
:100EE0000FD0864A503290420BD0844A64329042EE
:100EF00007D0824A7832904203D0804A8C3297429F
:100F000004D1206E026822F4807202607549206864
:100F1000884228D0A84226D0B04224D0404522D0D2
:100F2000484520D050451ED058451CD07149183135
:100F3000884218D07049884215D06F4918318842CC
:100F400011D06D49303188420DD06B49483188420B
:100F500009D069496031884205D0674978318842B3
:100F600001D065499031016821F0010101600EE076
:100F700001F066F80099401A052808D92022626518
:100F80000321002084F8351084F8340017E738680E
:100F9000C007EDD1534A0121206890422ED0A842CB
:100FA0002CD0B0422AD0404528D0484526D05045C4
:100FB00024D0584522D04F4B183398421ED04E4B68
:100FC00098421BD04C4B1833984217D04A4B3033C1
:100FD000984213D0484B483398420FD0464B603369
:100FE00098420BD0444B7833984207D0424B903311
:100FF000984203D0404BA833984208D194F85C70D3
:101000003F23A06D07F01F07BB40836007E094F803
:101010005C30A06D03F01F0301FA03F34360206806
:1010200090424DD0A8424BD0B04249D0404547D025
:10103000484545D0504543D0584541D02D4A1832F7
:1010400090423DD02C4A90423AD02B4A18329042DE
:1010500036D0294A3032904232D0274A4832904224
:101060002ED0254A603290422AD0234A78329042CC
:1010700026D0214A9032904222D01F4AA832904274
:101080001ED01E4A90421BD01C4A1432904217D0E8
:101090001A4A2832904213D0184A3C3290420FD05C
:1010A000164A503290420BD0144A6432904207D014
:1010B000124A7832904203D0104A8C3290420BD1BF
:1010C000D4E919024260E06E30B1026822F4807205
:1010D0000260D4E91C024260002084F8351084F8D4
:1010E00034006DE6100002405800024070000240DB
:1010F00088000240A0000240100402400854025838
:101100002DE9F05F28B190F83510022904D0802134
:1011100041650120BDE8F09F904C904B0168183C60
:1011200018338E4ADFF83C92A1428D4CDFF838E24A
:101130008E4FDFF83CB2DFF83CA28F4D8F4E31D09E
:1011400091422FD099422DD0A1422BD0494529D090
:10115000714527D0B94225D0DFF810C20CF1180C28
:1011600061451FD0DFF808C2ACF1600C614519D0B1
:10117000DFF8FCC1ACF1480C614513D0DFF8F0C1D9
:10118000ACF1300C61450DD0DFF8E4C1ACF1180CC6
:10119000614507D0594505D0514503D0A94201D03A
:1011A000B1422CD1DFF8B4C14FF0040880F835808B
:1011B000ACF1180C61451DD091421BD0994219D059
:1011C000A14217D0494515D0714513D0B94211D06D
:1011D0006648183081420DD065486038814209D098
:1011E00063484838814205D061483038814201D097
:1011F0005F481838086820F001000860ABE0D1F8BB
:1012000000C02CF00E08DFF854C1C1F80080ACF12A
:10121000180C0168614527D0914225D0994223D00E
:10122000A14221D049451FD071451DD0B9421BD0E4
:10123000DFF838C10CF1180C614515D0DFF830C16A
:10124000ACF1600C61450FD0DFF824C1ACF1480C63
:10125000614509D0DFF818C1ACF1300C614503D00D
:10126000DFF80CC1ACF1180CD1F800C02CF0010C67
:10127000C1F800C0DFF8E4804FF0010C0168A8F16C
:101280001808414546D0914244D0994242D0A142EB
:1012900040D049453ED071453CD0B9423AD0334A5E
:1012A0001832914236D0324A603A914232D0304AB6
:1012B000483A91422ED02E4A303A91422AD02C4AB6
:1012C000183A914226D0594524D0514522D0A942FE
:1012D00020D0B1421ED02A4A91421BD0284A143253
:1012E000914217D0264A2832914213D0244A3C32E8
:1012F00091420FD0224A503291420BD0204A6432A0
:10130000914207D01E4A7832914203D01C4A8C3257
:10131000914218D1016E0A6822F480720A6090F836
:101320005C20816D02F01F020CFA02F24A60D0E9E3
:1013300019124A60C16E31B10A6822F480720A60E3
:10134000D0E91C124A600022016D80F835C080F897
:10135000342001B188470020DCE60000280002406C
:10136000580002407000024088000240A000024085
:101370007004024088040240A0040240B804024005
:101380000854025870B5044600F05AFE0546601C29
:1013900002D004480078044400F052FE401BA042F2
:1013A000FAD370BD0400002410B590F89830012BDA
:1013B00009D0022B07D0D0F89C1041F00201C0F8F0
:1013C0009C10012010BD03689C6D0C4203D1DC6DA4
:1013D00044F0010404E09C6D31EA04041FD00324AE
:1013E000DC658B0505D50368D3F8E0401443C3F8EA
:1013F000E0404B0505D50368D3F8E4401443C3F837
:10140000E4400068084A01EA0203446D074A1C43AD
:101410004465106840EA91701060002010BDDC6DDA
:1014200044F00204DCE70000FFFFCF3F14A80040B7
:1014300070B5044690F89800022804D0D4F89C00B7
:1014400040F008000DE02068D0F8C03013F07C5F59
:101450000BD0D0F8C4309B020CD5D4F89C0040F4DB
:101460000070C4F89C00012070BDD4F89C0040F0CE
:101470002000F6E7D0F8C400C0F3044520462B4610
:10148000FFF750FC21680120A840C1F8D000C4F843
:101490009400002070BD704770B590F89820012A24
:1014A00009D0022A07D0D0F89C1041F00201C0F800
:1014B0009C10012070BD0B68CA6883B10B69072AB4
:1014C00043EA427325D00C7A4A6942EA8472496839
:1014D000006F00EBC100C0E90032002070BD072A98
:1014E0000DD00C7AD6060D8A4B6943EA847246EA1F
:1014F0000543C06E49681A4340F82120EDE70B8A86
:101500004FF06055D1E9062442EA034245EA04233C
:10151000EFE78A69DBE77047704700000068402901
:1015200005D0D0F8B40000BF00F07F007047D0F8BD
:10153000A400F9E7F0B590F898500024022D04D0EB
:10154000D0F89C1041F0080129E0402905D041293C
:1015500029D0056D8D4219D942E00568D5F8A06003
:1015600016F4FE0F12D0D5F8A460760613D0D5F885
:10157000A460F60105D5D5F8A06016F0004F00D59F
:101580000124D5F8A470466F456C24E0D0F89C1077
:1015900041F0200103E0D0F89C1041F48071C0F8C4
:1015A0009C100120F0BD0568D5F8B06016F4FE0F60
:1015B000ECD0D5F8B4607606EDD0D5F8B460F6017D
:1015C00005D5D5F8B06016F0004F00D50124D5F848
:1015D000B470866FC56CC7F305273C44654302E0D1
:1015E000456DC66F4D4306EB85052E6816F08046A7
:1015F00056602E6836D026F060461660D5F800C0DA
:1016000000262E4F0CF0005CC2F808C0D5F800C0D0
:101610000CF0004CC2F810C0B5F804C01FFA8CFCE6
:10162000C2F81CC0D5F804C0CCF3034CC2F80CC0FF
:10163000D5F804C00CF4801CC2F814C0D5F804C05E
:101640000CF4001CC2F818C0D5F804C0CCF3066C2A
:10165000C2F820C0D5F804C008354FEADC7CC2F8D7
:1016600024C008E0C6F38A46C7E700BF15F806C0E5
:1016700003F806C0761CD2F80CC017F80CC0B445AD
:10168000F4D840290AD041290CD020294FF001027A
:101690000CD200688A40C0F898200DE00068C0F8BD
:1016A000A84009E00068C0F8B84005E0006801F013
:1016B0001F018A40C0F89C200020F0BDB45B0008E8
:1016C000704700002DE9FF5FDFF80CB304460BF113
:1016D0000401DBF8000025680F68AA468007D5F8EA
:1016E0005090696DD5F850806E6D2A6DD5F854C054
:1016F0002B6D00EA8770009009F470496F6D286DBA
:1017000001EA09010191DAF85410DAF85490DAF894
:10171000505008F00F0806EA0806029602F0F002A0
:1017200003F071536FEA09061F4000F060700CEA85
:10173000020CCDF80CC0F20501EA00090CD4E84314
:10174000C00509D400214FF48073CAF85030CBF89B
:1017500000102046FFF7B4FF700512D4E84340059F
:101760000FD4206800234FF48068D0F8DC20D0F834
:10177000E410C0F85080CBF800301140204600F053
:1017800047FBDFF858A2009850B12268830F00EAA7
:101790000A001065CBF8003020460099FFF77BFE69
:1017A000019850B12268830F00EA0A001065CBF857
:1017B00000302046019900F02DFB029850B12268BC
:1017C000830F00EA0A001065CBF80030204602992A
:1017D00000F0BEFA039850B12268830F00EA0A00B5
:1017E0001065CBF800302046039900F0F1FA30057F
:1017F0000CD4E843000509D4236800204FF40062AC
:101800001A65CBF80000204600F005FBB00512D4A5
:10181000E84380050FD4206800234FF40078D0F807
:10182000D820D0F8E010C0F85080CBF8003011403C
:10183000204600F0EEFA30030CD4E843000309D44C
:10184000236800204FF400221A65CBF800002046E0
:1018500000F07CFAF0030CD4E843C00309D42368F9
:1018600000204FF480321A65CBF80000204600F0CB
:10187000CEFA70030CD4E843400309D42268002058
:101880004FF480231365CBF80000204600F0BEFA29
:10189000B0030FD4E84380030CD4236800204FF436
:1018A00000321A65CBF80000D4F89C0040F08000AC
:1018B000C4F89C00B9F1000F0BD022684FEA99736D
:1018C00009EA0A001065CBF8003049462046FFF7C8
:1018D00023FE5FB12268BB0F07EA0A001065CBF850
:1018E0000030D4F89C003843C4F89C003C49206880
:1018F000884268D1606881468068800763D0D9F8E3
:101900002060D9F82410D9F82080D9F82400D9F81B
:1019100020C0D9F82470D9F82030D9F82450D9F84B
:10192000202003F4FC4306F00F0AD9F824601D4080
:10193000D9F824B008F030080CF4C07C02F4F0228E
:1019400011EA0A0100EA080807EA0C0706EA02069B
:10195000D9F820A004D0C9F82010204600F053FA8E
:10196000B8F1000005D0616808624146204600F0E9
:101970004CFA6FEA0B0040060ED46FEA0A004006EC
:101980000AD460684021C36BC26B01622046190C07
:1019900002F03F0200F038FA2FB160680762394662
:1019A000204600F02FFA35B160680562D4F89C003B
:1019B0002843C4F89C0036B160680662D4F89C00E5
:1019C0003043C4F89C00D4F89C00002802D0204684
:1019D000FFF7A1FDBDE8FF9F10A80040FFFFCF3F2C
:1019E00000A000402DE9F04194B08D494C220446FE
:1019F0006846FEF752FD64B18A4D2068A84202D1C4
:101A000000F58070606094F898004FF0000820B1F5
:101A100008E0012014B0BDE8F081204684F89980E8
:101A200000F002F92068816921F01001816100F065
:101A300007FB0327064604E000F002FB801B0A2890
:101A400011D8206880690007F6D42068816941F0C8
:101A50000101816100F0F4FA06460DE000F0F0FAB1
:101A6000801B0A2808D9D4F89C0040F00100C4F873
:101A70009C0084F89870CCE720688069C007EDD09E
:101A80002068816941F002018161207C0128206881
:101A9000816937D041F040018161607C0128206874
:101AA000816932D021F480418161A07C01282068C5
:101AB00081692DD041F4805181612068A2688169DB
:101AC00021F44071114381612068816921F0A401F2
:101AD00081612068016921F010010161E06801283D
:101AE00019D010B302281BD02068816941F0800111
:101AF00081612068016941F010010161E0680328FB
:101B00000ED012E021F04001C6E741F48041CBE75E
:101B100021F48051D0E72068816941F0040103E09D
:101B20002068816941F020018161207E6FF0FF0211
:101B3000D4E90773A68A1102400602EB0727A0F139
:101B40000070384327685B1E184301EB064630439C
:101B5000F861A068B0F5407F11D104F12800A68C8F
:101B60006FF00F0C89C801EB0641401E02EB032207
:101B7000104322680CEB071318430843D060206E13
:101B800030B12068626ED0F8C0101143C0F8C010A8
:101B9000D4E917126846D14209D02168A36E51F8E2
:101BA000C82F50F8233022F007021A430A60216C34
:101BB00049B12168626C51F8BC3F50F8226023F0B3
:101BC000070232430A60A16C51B12168E36C51F8FD
:101BD000BC2F50F8233022F0700242EA03120A6050
:101BE000216D51B12168626D51F8BC3F50F822005F
:101BF00023F4E06242EA002008602068A84204D191
:101C00006068816821F003018160C4F8948001213B
:101C1000C4F89C8084F898102046FEF79FFFF9E6F0
:101C2000C45B000800A000402DE9F043B5B0804639
:101C300014212EA8FEF763FCB8216846FEF75FFC6E
:101C40003D4D0026D8F800004FF080513B4A0C3D36
:101C5000384F4FF00208384C90424FF0090930D10C
:101C600000201B914A13CDE90020684600F012FCC9
:101C700008B1FEF7F4FE3868401C3860012807D12F
:101C8000206840F480702060206800F480703390F9
:101C9000286840F008002860286803222E922EA9A8
:101CA00000F00800CDE92F863196CDE93290244826
:101CB00000F0B2F800220121132000F039FA1320BD
:101CC00033E0204A904232D100201B914FF4004271
:101CD000CDE90020684600F0DDFB08B1FEF7BFFE4D
:101CE0003868401C3860012807D1206840F48070B3
:101CF0002060206800F480703390286840F0020073
:101D00002860286860222E922EA900F00200CDE9FA
:101D10002F863196CDE932900B4800F07DF80022F5
:101D20000221142000F004FA142000F0F3F935B079
:101D3000BDE8F08300000024EC44025800A00040FD
:101D4000000C025800A40040000402587047000034
:101D500070B51B4E0546194806F15C04854214D146
:101D60002046FEF785FE207801280ED12079617982
:101D700000F00F00F3EE020A41EA00200C21BBEE56
:101D8000020A03F0FDFE86ED030A0E48854214D1D7
:101D90000B485C30FEF7AAFE207801280DD1E078D0
:101DA0002179DFED090A000140EA11100C219FEDB5
:101DB000070A03F0E5FE86ED040A70BDEC0100247D
:101DC000000000208C02002400003442000034C2D5
:101DD000704790F89810012907D0D0F89C1041F076
:101DE0000401C0F89C1001207047022180F898106F
:101DF000002201688B6923F001038B61C0F89C20ED
:101E0000104670477047704770477047704770477B
:101E100070477047704770472DE9F84F03247A4D9B
:101E200000234FF001094FF0B04B4FF00F0AE4E0F0
:101E300009FA03F6324078D00F7907F00307012F33
:101E400001D0022F1AD187684FEA430ED1F80CC097
:101E500004FA0EF827EA08070CFA0EFC4CEA070C05
:101E6000C0F808C0476891F804C0B743CCF3001C21
:101E70000CFA03FC4CEA070CC0F804C00E79F643D8
:101E8000B6070BD0C6684FEA43088F6804FA08FC0F
:101E900026EA0C0607FA08F73743C7600E7906F002
:101EA0000306022E12D1DE080F694FEA437C00EBD5
:101EB0008606B646366A4FEADC6C0AFA0CF807FA70
:101EC0000CF726EA08063743CEF820700F7906682B
:101ED0004FEA430807F0030704FA08FC07FA08F77B
:101EE00026EA0C06374307604E6816F4403F1CD0C4
:101EF000464E376847F00207376036689F0706F09E
:101F00000206009623F0030606F1B046B6463F0FE0
:101F1000D6F80864DFF8F8800AFA07FC404526EA9C
:101F20000C0603D14FF0000C3AE065E0DFF8E4C0A6
:101F3000604502D14FF0010C32E0DFF8DCC06045B3
:101F400002D14FF0020C2BE0DFF8D0C0604502D187
:101F50004FF0030C24E0DFF8C8C0604502D14FF019
:101F6000040C1DE0DFF8BCC0604502D14FF0050C49
:101F700016E0DFF8B4C0604502D14FF0060C0FE068
:101F8000DFF8A8C0604502D14FF0070C08E0DFF889
:101F9000A0C0604502D14FF0090C01E04FF00A0CDF
:101FA0000CFA07FC4CEA060CCEF808C44F68DBF8C4
:101FB0000060FF0226EA020600D516435F46CBF812
:101FC0000060D1F804C0DBF804605FEA8C2C26EADC
:101FD000020600D516437E606E684F6826EA020648
:101FE000BF0300D516436E602E684F6826EA0206CE
:101FF000FF0300D516432E605B1C0A6832FA03F615
:102000007FF416AFBDE8F88F80000058F444025802
:10201000000002580004025800080258000C025840
:10202000001002580014025800180258001C0258F0
:10203000002402580AB1816170470904FBE70000DF
:10204000014880687047000004000024024881684D
:10205000027811448160704704000024032010B509
:1020600000F086F801F028F80F4A10491468136848
:10207000C4F3032203F00F038A5CC95C02F01F0261
:1020800001F01F01D0400A4A20FA01F1116009490C
:1020900008600F2000F010F808B1012010BD00F01A
:1020A0002BF8002010BD000018440258385C0008CE
:1020B000140000241000002470B50D4D044628784B
:1020C000A0B14FF47A71B1FBF0F00A490968B1FB95
:1020D000F0F001F056FD48B9102C07D2002221463D
:1020E000501E00F025F800206C6070BD012070BD0E
:1020F0000400002410000024054808B5016841F0E0
:1021000002010160006800F00200009008BD0000BC
:10211000F4440258002809DB410900F01F0289003D
:10212000012001F1E0219040C1F80001704700005A
:102130000E4BF0B41B680D46C3F30223C3F1070630
:10214000042E00D90426191D072901D2002300E01E
:10215000DB1E012404FA06F19C40491E2940641E3E
:10216000994014402143F0BC03F05FBC0CED00E04B
:10217000064900F0070210B54FF6FF040868044B4B
:10218000204040EA02201843086010BD0CED00E03A
:102190000000FA05134970B50A68D243520705D505
:1021A000096801F00701814213D118E00A6822F0A2
:1021B000070202430A60FFF743FF0A4D4FF47A76A5
:1021C0000446083D07E000BFFFF73AFF001BB0429E
:1021D00001D9012070BD2868C0438004F4D40020D8
:1021E00070BD00000C48025810B500F01FFF0549F3
:1021F0000968054AC1F30211515C01F01F01C84092
:1022000010BD000020440258385C0008494930B530
:10221000484C0B1D0A68143409681D68246802F0D4
:102220000303C5F30012C1F30531C4F3CC04002944
:1022300014FB02F200EE102AF8EE400A75D03F4A75
:102240009FED3D1AB7EE000A6BB1DFED3D1A012B91
:1022500001D0022B64D002EE101A1168F8EE422A67
:1022600081EEA22A21E0334C283C23689B0612D53C
:10227000344B246801EE901A1168C4F3C104F8EEDF
:10228000612AE34001EE903AC1F30801F8EE611AC9
:1022900081EEA22A0BE001EE901ADFED2B2A00BF9F
:1022A000F8EE611A116882EEA12AC1F3080101EE6D
:1022B000901A1168F8EE611A40EE811A71EE800AE8
:1022C00062EE200AC1F3462101EE101AB8EE411A5F
:1022D00031EE001AC0EE811ABCEEE11A80ED001A50
:1022E0001168C1F3064101EE101AB8EE411A31EE41
:1022F000001AC0EE811ABCEEE11A80ED011A1168D5
:10230000C1F3066101EE101AB8EE411A31EE000A6F
:1023100080EE801ABCEEC10A80ED020A30BD04E0F6
:1023200001EE901ADFED092ABAE700210160416051
:102330008160F3E72844025800000039384402580D
:102340000024744A0090D0030024744C001BB74B47
:10235000494930B5484C0B1D0A681C3409681D6892
:10236000246802F00303C5F30022C1F30551C4F34E
:10237000CC04002914FB02F200EE102AF8EE400A09
:1023800075D03F4A9FED3D1AB7EE000A6BB1DFED05
:102390003D1A012B01D0022B64D002EE101A1168F5
:1023A000F8EE422A81EEA22A21E0334C283C236831
:1023B0009B0612D5344B246801EE901A1168C4F3C1
:1023C000C104F8EE612AE34001EE903AC1F308013E
:1023D000F8EE611A81EEA22A0BE001EE901ADFED11
:1023E0002B2A00BFF8EE611A116882EEA12AC1F310
:1023F000080101EE901A1168F8EE611A40EE811A98
:1024000071EE800A62EE200AC1F3462101EE101A35
:10241000B8EE411A31EE001AC0EE811ABCEEE11A94
:1024200080ED001A1168C1F3064101EE101AB8EEF2
:10243000411A31EE001AC0EE811ABCEEE11A80EDAD
:10244000011A1168C1F3066101EE101AB8EE411AC3
:1024500031EE000A80EE801ABCEEC10A80ED020A5D
:1024600030BD04E001EE901ADFED092ABAE7002141
:10247000016041608160F3E72844025800000039A0
:10248000404402580024744A0090D0030024744C45
:10249000001BB74B2DE9FE4F0546DFF800A450F8AE
:1024A000081B0024FD4FC943019005F12800264672
:1024B0000AF1240A009008011DD4686E50B1B0F5ED
:1024C000801F0CD0B0F5001F0ED0B0F5401F1ED0FD
:1024D00001240FE0386840F40030386017E00198BC
:1024E000022102F013FA03E00098022102F09EFAA2
:1024F00004000CD026462888C043C00523D4A86D0C
:1025000005281ED2DFE800F00C11161B1B006A6EB6
:10251000DAF8001021F440111143CAF80010EAE77C
:10252000386840F40030386009E00198002102F07A
:10253000EDF903E00098002102F078FA0446C4B1F6
:1025400000E0012426462888DFF85083C04308F1C4
:102550002C0840052FD4D5F8A400B0F5C00F28D022
:1025600010DCB8B1B0F5001F19D0B0F5800F0FD155
:102570001AE0AA6DDAF8001021F007011143CAF839
:102580000010E0E7B0F5000F13D0B0F5200F10D029
:1025900001240FE0386840F40030386009E0019809
:1025A000002102F0B3F903E00098002102F03EFAA6
:1025B000044694B126462888C043000530D4D5F897
:1025C000A800B0F1407F29D011DCC0B1B0F1807F0C
:1025D0001AD0B0F1007F10D11BE0D5F8A420D8F8B4
:1025E000001021F460011143C8F80010E3E7B0F1D6
:1025F000806F13D0B0F1A06F10D001240FE03868C5
:1026000040F40030386009E00198002102F07EF9C2
:1026100003E00098002102F009FA044694B126462E
:102620002868DFF878B2C0430BF1200B80011FD47B
:10263000E86CD8B110280FD0202812D0302815D03F
:10264000012414E0D5F8A820D8F8001021F0E061AA
:102650001143C8F80010E3E7386840F400303860F0
:1026600004E00198022102F051F9044674B12646B3
:102670002888C043C0042BD4E86DB0F5005F20D09B
:102680000DDCA0B1B0F5805F0FD115E0EA6CDBF88E
:10269000001021F030011143CBF80010E8E7B0F54D
:1026A000405F13D0B0F5804F10D001240FE03868A0
:1026B00040F40030386009E00198002102F026F96A
:1026C00003E00098002102F0B1F904468CB12646DF
:1026D0002888C043800429D4286EB0F5403F23D019
:1026E00010DC08B3B0F5803F14D0B0F5003F0FD137
:1026F00015E0EA6DDAF8001021F4E0411143CAF860
:102700000010E5E7B0F5802F0ED0B0F5A02F0BD06C
:1027100001240AE00198012102F0F8F803E0009892
:10272000012102F083F9044694B126462888C0436B
:1027300040042AD4D5F8AC00B0F1405F23D010DCBF
:1027400008B3B0F1805F14D0B0F1005F0FD115E095
:102750002A6EDAF8001021F4E0211143CAF80010C3
:10276000E4E7B0F1804F0ED0B0F1A04F0BD00124C0
:102770000AE00198012102F0C9F803E00098012164
:1027800002F054F9044674B126462888C043000478
:102790001FD4E86ED8B1B0F1805F0ED0B0F1005F09
:1027A00010D0012414E0D5F8AC20D8F8001021F0A6
:1027B000E0411143C8F80010E7E7386840F4003002
:1027C000386004E00198012102F0A0F8044674B1D9
:1027D00026462868C043C0011ED4A86CD0B1012889
:1027E0000ED0022811D0032814D0012413E0EA6E81
:1027F000DAF8001021F040511143CAF80010E8E760
:10280000386840F40030386004E00198022102F09A
:102810007DF804466CB126462868C043400255D472
:102820001F48016841F480710160FFF709FC81468F
:102830000EE0AA6CDBF8001021F003011143CBF885
:102840000010E9E7FFF7FCFBA0EB090064283BD888
:1028500013480068C005F5D5BCBBDFF84090B5F85B
:10286000B01009F14409D9F8000001F4407100F4F6
:102870004070884211D0D9F80010D9F8002021F416
:10288000407142F48032C9F80020D9F8002022F4C7
:102890008032C9F80020C9F8001003E02C44025827
:1028A00000480258D5F8B000B0F5807F19D1FFF785
:1028B000C7FB029011E000BFFFF7C2FB0299411A6B
:1028C00041F28830814208D9032426462878DFF86F
:1028D0001494C043C00721D03CE0D9F80000800721
:1028E000EAD5D5F8B010C1F301200328FE480DD079
:1028F000016821F47C510160B5F8B020D9F80010CE
:10290000C2F30B021143C9F80010DFE7F74A03686E
:1029100002EA111223F47C511143ECE7A86F182846
:1029200016D005DCA0B1082808D0102804D10AE090
:1029300020280DD028280BD001240AE0019801217D
:1029400001F0E4FF03E00098012102F06FF8044673
:1029500064B126462878C04380071ED4686F0628D5
:1029600019D2DFE800F0160C11161616AA6FD9F866
:10297000001021F038011143C9F80010EAE701986E
:10298000012101F0C3FF03E00098012102F04EF89D
:1029900004467CB100E0012426462878C043400765
:1029A0001FD4D5F89000062819D2DFE800F0160CE5
:1029B000111616166A6FD9F8001021F0070111439D
:1029C000C9F80010E9E70198012101F09FFF03E039
:1029D0000098012102F02AF80446A4B100E0012485
:1029E00026462878C04380062BD4D5F88C00B0F159
:1029F000405F24D011DC10B3B0F1805F15D0B0F18E
:102A0000005F10D116E0D5F89020D8F8001021F022
:102A100007011143C8F80010E3E7B0F1804F0ED072
:102A2000B0F1A04F0BD001240AE00198002101F081
:102A30006DFF03E00098022101F0F8FF044694B115
:102A400026462878C04340062BD4D5F89800B0F528
:102A5000406F24D011DC10B3B0F5806F15D0B0F505
:102A6000006F10D116E0D5F88C20D9F8001021F0B5
:102A7000E0411143C9F80010E3E7B0F5805F0ED0E4
:102A8000B0F5A05F0BD001240AE00198002101F00D
:102A90003DFF03E00098022101F0C8FF044694B115
:102AA00026462878C04300062BD4D5F89C00B0F504
:102AB000C04F24D011DC10B3B0F5005F15D0B0F5D5
:102AC000804F10D116E0D5F89820D8F8001021F4E6
:102AD000E0511143C8F80010E3E7B0F5004F0ED005
:102AE000B0F5204F0BD001240AE00198002101F03D
:102AF0000DFF03E00098022101F098FF044654B155
:102B000026462878C04300071ED4D5F88000B0F5CB
:102B1000805F0AD00FE0D5F89C20D8F8001021F48F
:102B200060411143C8F80010EBE70098022101F062
:102B30007DFF00B10126D5F88020D9F8001021F4DE
:102B400040511143C9F800102878C043C00613D47F
:102B5000D5F89400B0F5807F05D10098022101F0EE
:102B600065FF00B10126D5F89420D8F8001021F4B3
:102B700040711143C8F800102868C043000316D400
:102B8000D5F8A00038B1B0F5803F09D0B0F5003FCE
:102B90000BD001240AE00198002101F0B7FE03E008
:102BA0000098022101F042FF04468CB126462868B5
:102BB000C043400322D4D5F88400B0F5801F11D063
:102BC000B0F5001F13D0B0F5401F15D0012414E05C
:102BD000D5F8A020D8F8001021F440311143C8F8EE
:102BE0000010E4E7386840F40030386004E00098F2
:102BF000012101F01BFF04465CB126462868C04352
:102C0000C0031CD4286D70B1B0F5803F10D00124F2
:102C100014E0D5F88420D9F8001021F440111143B4
:102C2000C9F80010EAE7386840F40030386004E082
:102C30000198022101F06AFE0446DCB126462868AC
:102C4000C043800005D40098022101F0EFFE00B1DE
:102C500001262868C04380031BD4E86FB8B1B0F5E3
:102C6000807F10D0B0F5007F11D0B0F5407F0ED03E
:102C700001240DE02A6DDBF8001021F480311143AE
:102C8000CBF80010DBE7386840F4003038607CB3E4
:102C900026462868C043C00207D42A6FDAF800101D
:102CA00021F000411143CAF800102868C043800297
:102CB00007D4AA6EDAF8001021F080711143CAF827
:102CC00000102868C043400009D40748016821F477
:102CD000004101600168D5F8B42011430160286803
:102CE000C04306E05444025810440258CFFFFF008E
:102CF0001DE007D46A6DDBF8001021F0405111434C
:102D0000CBF800102868C043000208D4D5F888200A
:102D1000D9F8001021F440011143C9F800102879B6
:102D20000024C04300F00100204309D00EE0EA6F08
:102D3000D9F8001021F440711143C9F80010A8E738
:102D40000198002101F0E2FD00B106462879C04358
:102D500000F00200204305D10198012101F0D6FDC9
:102D600000B106462879C04300F00400204305D195
:102D70000198022101F0CAFD00B106462879C0433E
:102D800000F00800204305D10098002101F04EFE1C
:102D900000B106462879C04300F01000204305D159
:102DA0000098012101F042FE00B106462879C04397
:102DB00000F02000044304D10098022101F036FE07
:102DC00000B916B10120BDE8FE8F0020FBE700002E
:102DD0002DE9F05F04000F467ED0DFF83882D8F886
:102DE000000000F00F00B8420CD2D8F8001021F01B
:102DF0000F013943C8F80010D8F8000000F00F00A8
:102E0000B84269D12078844D40070AD520692968E5
:102E100001F07001884204D9296821F07001014352
:102E2000296020787C4E361D00070AD5606931681C
:102E300001F07001884204D9316821F0700101432A
:102E400031602078C0060AD5A069316801F4E061DC
:102E5000884204D9316821F4E0610143316020786F
:102E6000DFF8B4B180060BF1080B0CD5E1695846C8
:102E7000DBF8002002F07002914204D9026822F0CF
:102E800070020A430260207880070AD5E06829684A
:102E900001F00F01884204D9296821F00F01014394
:102EA00029602078C0073ED05B49A268286818399D
:102EB00020F47060104328606068022818D003284E
:102EC00019D00968012819D0490700294ADADFF822
:102ED00048A1AAF1080A00E044E0DAF8002022F054
:102EE00007020243CAF80020FFF7AAF8814612E061
:102EF00009688903E9E709688901E6E7C905E4E7A4
:102F0000FFF79EF8A0EB090141F28830814202D917
:102F10000320BDE8F09F6168DAF8000000F0380097
:102F2000B0EBC10FECD1207880070AD5E0682968A2
:102F300001F00F01884204D2296821F00F010143FA
:102F40002960D8F80010404601F00F01B9420BD9B2
:102F5000016821F00F0139430160006800F00F00A3
:102F6000B84201D00120D4E7207840070AD5206973
:102F7000296801F07001884204D2296821F07001AB
:102F800001432960207800070AD56069316801F0A3
:102F90007001884204D2316821F070010143316030
:102FA0002078C0060AD5A069316801F4E061884242
:102FB00004D2316821F4E061014331602078800659
:102FC0000CD5E1695846DBF8002002F0700291420E
:102FD00004D2026822F070020A43026000F06CF82A
:102FE0000E492A682B68C2F3032203F00F038A5CA0
:102FF000C95C02F01F0201F01F01D040084A20FA0C
:1030000001F111600749086007480068BDE8F05FFA
:10301000FFF752B80020005218440258385C0008EC
:1030200014000024100000240800002430B500F033
:1030300043F80B4A0B490C4B15681468C5F303227F
:1030400004F00F048A5C095D02F01F0201F01F0109
:10305000D040064A20FA01F119601060084630BDE0
:1030600018440258385C00081400002410000024A2
:1030700000B5FFF7DBFF05490968054AC1F30211F6
:10308000515C01F01F01C84000BD00001C44025803
:10309000385C000800B5FFF7C9FF05490968054A13
:1030A000C1F30221515C01F01F01C84000BD0000C6
:1030B0001C440258385C0008454970B54548096809
:1030C000434B103B11F0380208D00111082A03D0FD
:1030D000102A0BD0182A0BD0084670BD1968890633
:1030E000FBD51968C1F3C101C84070BD3A4870BD35
:1030F0003749374D18310C1D24350A680968266890
:103100002D6802F0030406F00102C1F30511C5F3B6
:10311000CC0515FB02F200EE102AB8EE400AE9B326
:103120002F4ADFED2E0AB7EE001A6CB1DFED2D1A33
:10313000012C01D0022C43D002EE101A1068F8EED8
:10314000422A81EEA22A1EE01C68A40611D51B6843
:1031500001EE901A1168C3F3C103F8EE612AD8405A
:1031600001EE900AC1F30800F8EE611A81EEA22A7E
:103170000BE001EE901ADFED1C2A00BFF8EE611A99
:10318000106882EEA12AC0F3080001EE900AF8EE62
:10319000611A40EE201A31EE810A00E015E022EEBD
:1031A000000A1068C0F34620401C00EE900AF8EEBA
:1031B000600A80EE201ABCEEC10A10EE100A70BD43
:1031C00001EE901ADFED092AD8E7002070BD00005B
:1031D000104402580090D00300366E010000003900
:1031E000304402580024744A0024744C001BB74B2E
:1031F0002DE9F05F04007DD0FF4F2078FE4D183799
:10320000DFF8F483103DC00748D0D8F800003968D3
:1032100000F03800102815D0182803D101F0030061
:1032200002280FD06068B0F5803F12D010B1B0F521
:10323000A02F18D0286820F480302860286820F457
:10324000802009E02868800328D560680028D2D053
:1032500024E0286840F480302860606888B1FEF778
:10326000EFFE064609E0286840F480202860F0E779
:10327000FEF7E6FE801B64287ED828688003F7D519
:103280000CE0FEF7DDFE064605E000BFFEF7D8FEC7
:10329000801B6428F0D828688003F7D42078800742
:1032A00056D5D8F80000DFF85093396810F0380090
:1032B000A9F10C090ED0182801D188070AD0E068BE
:1032C000A8B3296821F0190101432960FEF7B8FE6F
:1032D000064628E02868400702D5E06800288AD022
:1032E000E168286820F0190008432860FEF7A8FE6E
:1032F000064606E0D2E000BFFEF7A2FE801B0228D1
:10330000BAD828684007F7D5217CD9F8002022F0E8
:10331000FE4242EA0161C9F8001019E0FEF790FE92
:10332000801B0228A8D828684007F7D5ECE7FFE7FC
:10333000286820F001002860FEF782FE064604E0BF
:10334000FEF77EFE801B022896D828684007F7D437
:103350002078C00646D5D8F80000DFF89C9239687E
:1033600000F03800A9F10409082812D0182805D166
:1033700001F00300012800E0CEE00AD0E069002857
:10338000286820D040F080002860FEF759FE0646ED
:1033900015E02868C00502D5E06980287ED194F840
:1033A0002010D9F8002022F07C5242EA0161C9F8CD
:1033B000001017E0FEF744FE801B0228A0D8286802
:1033C000C005F7D5EBE720F080002860FEF738FE57
:1033D000064604E0FEF734FE801B022890D82868D9
:1033E000C005F7D42078000729D583486169643087
:1033F00000298146016811D041F001010160FEF70A
:103400001FFE064605E000BFFEF71AFE801B0228DD
:1034100088D8D9F800008007F6D510E021F0010126
:103420000160FEF70DFE064605E000BFFEF708FE50
:10343000801B022870D8D9F800008007F6D42078C5
:10344000800623D5A0690028286810D040F4805059
:103450002860FEF7F5FD064605E000BFFEF7F0FD2B
:10346000801B022858D828688004F7D50EE020F485
:1034700080502860FEF7E4FD064604E0FEF7E0FD1C
:10348000801B022848D828688004F7D42078400799
:1034900051D5DFF86891D9F8001000E015E141F44A
:1034A0008071C9F80010FEF7CBFD064605E000BFAD
:1034B000FEF7C6FD801B64282ED8D9F80000C00591
:1034C000F6D54D4EA068603601280AD008B105280F
:1034D00013D0306820F001003060306820F0040024
:1034E00002E0306840F001003060A06841F2883AA4
:1034F00098B1FEF7A5FD81460AE0306840F004006F
:103500003060EEE7FEF79CFDA0EB0901514503D8C2
:1035100030688007F6D50EE072E0FEF791FD814637
:1035200006E000BFFEF78CFDA0EB0901514567D80E
:1035300030688007F6D4606A00287CD0DFF8B8A035
:10354000D8F800100AF1200A4FF6F87B0AF10408B7
:10355000C1F3C2010329AAF104096DD00228286829
:1035600020F08070286003D0FEF76AFD044681E0F9
:10357000FEF766FD064604E0FEF762FD801B0228AA
:1035800075D828688001F7D4E26A40F2F3313868D0
:1035900054F8283F884340EA021018433860217BE2
:1035A0004FF4FE0C22894FF0FE47208A4902267D07
:1035B000521E401EA1F5007189B2C2F308021143E8
:1035C000761E0CEA00400143484607EA06621143B2
:1035D000CAF80010D9F8001021F00101C9F8001054
:1035E000D8F80030266A23EA0B0343EAC601C8F87C
:1035F0000010D9F8001004E01044025800480258A6
:1036000035E0A26921F00C011143C9F800100168EE
:10361000E26921F0020111430160016841F4803147
:103620000160016841F400310160016841F48021CA
:103630000160016801E06CE020E041F001010160FF
:10364000286840F080702860FEF7FAFC044604E029
:10365000FEF7F6FC001B022809D828688001F7D580
:1036600057E000BFFEF7ECFC001B022802D9032044
:10367000BDE8F09F28688001F4D44AE03968012849
:10368000DAF8000021D0A26A01F0030393421CD1B2
:10369000E26AC1F305118A4217D1216BC0F3080217
:1036A000491E8A4211D1616BC0F34622491E9142E4
:1036B0000BD1A16BC0F30642491E914205D1E16BCB
:1036C000C0F30660491E814201D00120D0E7A16C01
:1036D0004646D8F80000C0F3CC00814219D0D9F892
:1036E00000004D4620F00100C9F80000FEF7A8FCDC
:1036F0004FEA0007FEF7A4FCB842FBD0A26C30688A
:1037000020EA0B0040EAC2003060286840F0010067
:1037100028600020ACE700002DE9F047040029D024
:10372000594A4FF000092068584B594D9042C4F84F
:10373000289006D0984204D0A84202D0E1680F2910
:1037400018D8E1684FF0010AE76B0831C9080AEBA5
:1037500057167143904205D0984203D0A84201D039
:10376000082907D8904203D0984201D0A84204D13A
:10377000102902D90120BDE8F08794F8810020B912
:10378000204684F8809000F085F8022084F88100BB
:103790002068016821F0010101602068A169826848
:1037A000B1F1806F02F4F81110D16268B2F5800FA8
:1037B00001D01AB10AE0A26B22B107E0A26BB2F10C
:1037C000805F03D1026842F4805202606068400268
:1037D00009D5E068072806D32068236D026822F423
:1037E00080721A4303E02068026822F4807202604B
:1037F000A66AE069E26B25683043E3680A43104338
:103800001843A860D4E90D02D4E90581636A2569EB
:103810001843D4F820C00A43266810432843A56DF6
:10382000D4E90172D4E9123140EA080040EA0C0000
:1038300038430843104318432843F060606868B970
:103840002068816821F4C05141F4006181602068E2
:10385000816821F4C06141F4806181602068016D5C
:1038600021F0010101656068400206D52068626DA3
:10387000C16821F000411143C160C4F8849084F80C
:1038800081A0002077E700000030014000380040B0
:10389000003C004070B5B4B0044614212EA8FCF7DB
:1038A0002EFEB8216846FCF72AFE2149206888428E
:1038B0003CD18114002017900446CDE900106846E1
:1038C000FEF7E8FD08B1FDF7CAF81A48016841F4AF
:1038D00080510160006800F4805033901548103822
:1038E000016841F008010160016801F008013391AD
:1038F000016841F00201016000680526022500F020
:103900000200339080202E90CDE92F540A482EA932
:10391000CDE93146FEF780FA08202E90CDE92F54EC
:1039200006482EA9CDE93146FEF776FA34B070BDCF
:1039300000300140F0440258000C025800040258C4
:103940002DE9F84F044600689946174600F1200B10
:103950008A46FEF775FB064694F88100012839D1A6
:10396000BAF1000F7ED0002FFCD094F8800001281F
:1039700030D0A26800254FF0010884F88080032130
:1039800084F88110C4F88450C4F85CA06566A4F87B
:103990006850656725672C34B2F5C02FA786E78687
:1039A000E58754F82C0D18D0C16821F4C02141F4EA
:1039B0000031C160206841686FF30F0139434160F5
:1039C0002068016841F0010101606068B0F5800F76
:1039D00008D00CE00220BDE8F88F016841F40061D6
:1039E0000160E7E72068016841F400710160E06868
:1039F0000F281CD820E02068416989070BD5E16DAC
:103A000009680162E06D001DE065B4F86200401EC7
:103A1000A4F862000BE0FEF713FB811B494503D3BA
:103A2000B9F1FF3F03D09DE0B9F1000F32D0B4F8F7
:103A300062000028DFD179E007282FD872E02068E3
:103A4000416989071ED5B4F8621001290DD9E16BCF
:103A500059B1E16D09680162E06D001DE065B4F8DF
:103A6000620000E07CE0801E09E0E06D0188ABF8B8
:103A70000010E06D801CE065B4F86200401EA4F800
:103A800062000BE0FEF7DCFA811B494503D3B9F174
:103A9000FF3F03D066E0B9F1000F63D0B4F86200D5
:103AA0000028CCD142E02068416989072ED5B4F8BE
:103AB000621003290CD9E16B402909D9E16D09682D
:103AC0000162E06D001DE065B4F86200001F1AE0BD
:103AD000B4F8621001290CD9E16B51B1E06D018895
:103AE000ABF80010E06D801CE065B4F86200801E49
:103AF00009E0E16D097880F82010E06D401CE06578
:103B0000B4F86200401EA4F862000BE0FEF798FAD9
:103B1000811B494503D3B9F1FF3F03D022E0B9F13E
:103B2000000F1FD0B4F862000028BCD100224B4621
:103B300008212046009601F067F828B1D4F88400E7
:103B400040F02000C4F88400204600F0FFFF84F815
:103B50008180D4F8840084F8805000283FF43BAF83
:103B6000012038E7204600F0F1FFD4F8841084F8F3
:103B7000805041F48071C4F8841084F8818003205F
:103B800029E7401EB0F1807F10B501D3012010BDA0
:103B90004FF0E02460610F21601701F046FF002024
:103BA000A0610721216110BD30B590F88410012972
:103BB00018D0012280F884202421C0F88810002227
:103BC000202401680B680D6823F0005325F00105DF
:103BD0000D60426601680B60C0F8884080F8842060
:103BE000104630BD022030BD7047704770B50446A6
:103BF00090F8840001281DD0012284F8842024201C
:103C0000C4F8880020680568026822F0010202609A
:103C10002068826822F060620A438260204601F0D8
:103C2000CBF82268202100201560C4F8881084F8A1
:103C3000840070BD022070BD70B5044690F8840009
:103C400001281DD0012284F884202420C4F8880093
:103C500020680568026822F001020260206882681C
:103C600022F060420A438260204601F0A5F82268F3
:103C7000202100201560C4F8881084F8840070BDED
:103C8000022070BD70477047704700002DE9F04179
:103C900007680025044640F60F030226F8693968D4
:103CA000BA6818420AD183067ED501F0200302F0DB
:103CB000805C53EA0C0377D0616F74E1CF4BDFF87F
:103CC00040C3134001EA0C0C53EA0C0C6CD05FEAC1
:103CD000C07C0CD05FEAC15C09D54FF0010CC7F87D
:103CE00020C0D4F8907047F00107C4F8907087079F
:103CF00009D5D70707D027683E62D4F8906046F010
:103D00000406C4F8906046070AD5D60708D027688D
:103D100004263E62D4F8906046F00206C4F8906033
:103D200006070CD501F020061E4308D0266808239C
:103D30003362D4F8903043F00803C4F890300305A0
:103D40000BD54B0109D526684FF400633362D4F8D4
:103D5000903043F02003C4F89030D4F89030002B1A
:103D60003DD0800609D501F0200002F080510843C3
:103D700003D0616F09B1204688472168D4F89000CC
:103D80008968490602D410F0280F2AD0204601F095
:103D9000F9F82068806840061ED52068083050E891
:103DA000001F21F0400100E021E040E80012002A5D
:103DB000F3D1D4F8800078B192490165D4F880003D
:103DC000FDF79EF900280AD0D4F88000016D00E0CC
:103DD0002046BDE8F04108472046FFF755FFBDE803
:103DE000F0812046FFF750FFC4F89050F7E7D4F871
:103DF0006CC02023BCF1010F7ED15FEAC06C7BD583
:103E00005FEAC16C78D5102038622068806840066F
:103E100073D5D4F880107C4A0868904234D07A4A2E
:103E20001832904230D0784A303290422CD0764AC4
:103E30004832904228D0744A6032904224D0724A6C
:103E40007832904220D0704A903290421CD06E4A14
:103E5000A832904218D06D4A904215D06B4A183261
:103E6000904211D0694A303290420DD0674A4832B0
:103E7000904209D0654A6032904205D0634A783258
:103E8000904201D0614A903240680004000CA6D0F4
:103E9000B4F85C208242A2D9A4F85E00C869B0F5EB
:103EA000807F2FD0216851E8000F20F4807041E816
:103EB0000002002AF6D12068083050E8001F21F0E7
:103EC000010140E80012002AF5D12068083050E8CE
:103ED000001F21F0400140E80012002AF5D1C4F88B
:103EE0008C30E566216851E8000F20F0100041E8B1
:103EF0000002002AF6D101E040E00BE0D4F8800097
:103F0000FCF74EFF2667B4F85C00B4F85E10401A68
:103F100081B22FE0B4F85C00B4F85E10B4F85E2013
:103F2000401A81B2002AB2D00029B0D0226852E8EB
:103F3000000F20F4907042E80007002FF6D1344FB4
:103F4000206800F1080050E8002F02EA070240E86C
:103F5000002CBCF1000FF3D1C4F88C30E566656726
:103F6000206850E8002F22F0100240E80023002BC8
:103F7000F6D126672046FFF737FE30E7C60209D59F
:103F8000560207D54FF4801038622046BDE8F04154
:103F9000FFF779BE06060AD501F0800602F400029A
:103FA000164304D0A16F00297FF412AF17E7420631
:103FB00011D54A060FD52046026852E8001F21F0AD
:103FC000400142E80014002CF6D1C0F88830856723
:103FD00000F06EF903E7020206D54A0004D5204638
:103FE000BDE8F041FFF74EBEC001C6D50029C4DAD6
:103FF0002046BDE8F041FFF7F8BD000001000010C9
:10400000200100046F4F000810000240100402401D
:10401000FEFFFFEF10B5040003D0D4F8880010B104
:1040200007E0012010BD002084F88400204600F045
:1040300027F82420C4F888002068016821F00101D5
:104040000160A06A10B1204600F0D8FE204601F0C1
:104050002BFA0128E6D02068416821F490414160A4
:104060002068816821F02A0181602068016841F0A0
:10407000010101602046BDE8104000F023BF0000B0
:10408000F0B5B5B0044614212EA8FCF738FAB821D3
:104090006846FCF734FA3A49022620680024364D77
:1040A000364F884232D100201D940221CDE9001004
:1040B0006846FEF7EFF908B1FCF7D1FC2E4808304E
:1040C000016841F080410160006800F08040339059
:1040D000286840F0100028602868072100F01000D0
:1040E00033904FF4C0702E90CDE92F64CDE931416B
:1040F0002EA93846FDF790FE002203215220FEF73C
:1041000017F85220FEF706F835B0F0BD1D49884279
:10411000FAD100201E940121CDE900106846FEF777
:10412000B9F908B1FCF79BFC13481030016841F065
:1041300080010160006800F080003390286840F042
:104140001000286028682EA900F010003390042089
:104150002E90CDE92F64CDE931403846FDF75CFE65
:104160000B2108202E90CDE92F64CDE931412EA9F5
:104170003846FDF751FEC7E7E044025800100258E8
:1041800000780040001C014030B4D0F88C30202B67
:1041900002D0022030BC7047A9B1A2B10B4D00245F
:1041A0000368C466AB420BD05B681B0208D5046889
:1041B00054E8003F43F0806344E80035002DF6D119
:1041C00030BC01F05FBB0120E4E70000000C0058A8
:1041D00010B50068074988420BD107488078FCF782
:1041E00003FC05490122BDE810400448891CFFF783
:1041F000CBBF10BD0078004000000020640000200C
:104200002DE9F8430446D0F88800984616460D4636
:10421000202802D00220BDE8F883A5B19EB100217C
:10422000C4F890102120C4F888001834FDF708FF66
:10423000814654F8100CA687E6872027183CB0F575
:10424000805F02D003E00120E5E7206910B12E462F
:10425000002510E000260EE08021204601F09AFBA8
:10426000C0B9DEB116F8010B21688862B4F85600B7
:10427000401EA4F85600B4F856004B464FF000021A
:10428000CDF800800028E7D14FF04001204601F032
:1042900081FB48B1C4F888700320BCE735F8020BF5
:1042A0002168C0F30800E0E7C4F888700020B2E796
:1042B0007047FEE72DE9F0411E4614460F460546BD
:1042C0002A2000F013F91435A8B200F005F91434CF
:1042D000A0B200F001F92B2000F008F9384600F0F8
:1042E000FBF8304600F0F8F8BDE8F0412C2000F073
:1042F000FDB82DE9F0470C468046581E1F46511E5A
:10430000164683B2DDF820908AB221464046FFF778
:10431000D1FF0AE0454604E0484600F0DDF86D1C98
:10432000ADB2B542F8D3641CA4B2BC42F2D3BDE82E
:10433000F087000070B5674D4FF4006400222146FD
:104340002846FDF777FE6420FDF71CF80122214680
:104350002846FDF76FFE6420FDF714F80122284679
:104360009102FDF767FE6420FDF70CF8112000F0C4
:10437000BDF87820FDF706F8362000F0B7F8702079
:1043800000F0CAF83A2000F0B1F8052000F0C4F8B7
:10439000B22000F0ABF80C2000F0BEF80C2000F0CA
:1043A000BBF8002000F0B8F8332000F0B5F8332057
:1043B00000F0B2F8B72000F099F8352000F0ACF822
:1043C000BB2000F093F8322000F0A6F8C22000F0E5
:1043D0008DF8012000F0A0F8C32000F087F8152028
:1043E00000F09AF8C42000F081F8202000F094F842
:1043F000C62000F07BF80F2000F08EF8D02000F0EF
:1044000075F8A42000F088F8A12000F085F8E020DD
:1044100000F06CF8D02000F07FF8082000F07CF865
:104420000E2000F079F8092000F076F8092000F05D
:1044300073F8052000F070F8312000F06DF833209B
:1044400000F06AF8482000F067F8172000F064F8E0
:10445000142000F061F8152000F05EF8312000F023
:104460005BF8342000F058F8E12000F03FF8D0204D
:1044700000F052F8082000F04FF80E2000F04CF841
:10448000092000F049F8092000F046F8152000F056
:1044900043F8312000F040F8332000F03DF8482088
:1044A00000F03AF8172000F037F8142000F034F844
:1044B000152000F031F8312000F02EF8342000F003
:1044C0002BF8212000F012F8BDE87040292000F000
:1044D0000DB800000004025810B50446000A00F0B0
:1044E0001BF8E0B2BDE8104000F016B870B5094DF9
:1044F0004FF480640022064621462846FDF79AFDC7
:10450000304600F009F821462846BDE870400122F7
:10451000FDF790BD000C025831B50A4D4FF4004430
:10452000002221462846FDF785FD074801224FF667
:10453000FF736946FFF704FA012221462846FDF77A
:1045400079FD38BD001002582C03002412480022C7
:10455000012110B5FCF728FF0F4801220021D838AF
:1045600093070360C0E90112C0E9032141610146DC
:10457000D830FCF791FF08B1FCF771FA06480749FB
:104580000068426D42F00102426508680860BDE8BB
:1045900010400148FDF71DBCEC01002414A80040A8
:1045A000194800212DE9F041164F1D258160032691
:1045B00007600127C1600A240174022341740422A8
:1045C00087744661C0E90645C0E90846C0E90A4566
:1045D000C0E90C418163C0E90F13C0E91121C0E9B2
:1045E0001321C0E91521C0E91713C0E91912FDF71D
:1045F000F9F9002803D0BDE8F041FCF730BABDE876
:10460000F081000000A00040EC01002412480022CC
:10461000012110B5FCF7C8FE1048012200219307C4
:104620000360C0E90112C0E90321416101460A4863
:10463000FCF732FF08B1FCF712FA07480849006896
:10464000426D42F00102426508680860BDE8104012
:104650000148FDF7BEBB00008C0200243401002499
:1046600014A80040194800212DE9F041164F1D25DE
:104670008160032607600127C1600A2401740223B8
:104680004174042287744661C0E90645C0E90846C2
:10469000C0E90A45C0E90C418163C0E90F13C0E9D4
:1046A0001121C0E91321C0E91521C0E91713C0E9A0
:1046B0001912FDF797F9002803D0BDE8F041FCF787
:1046C000CEB9BDE8F081000000A400408C020024B7
:1046D0002DE9F04F87B014216846FBF710FF3848EA
:1046E000016841F010010160016801F010010591BD
:1046F000016841F004010160016801F004010591C5
:10470000016841F080010160016801F080010591BC
:10471000016841F002010160016801F002010591A8
:10472000016841F00801016000684FF46046DFF85D
:1047300094A0012200F00800314605905046FDF794
:1047400079FCDFF884B04FF4004700223946584620
:10475000FDF770FC4FF440681C4800224146FDF70D
:1047600069FC4FF480691A4800224946FDF762FC53
:104770000125694600245046CDE90065CDE9025483
:10478000FDF74AFB00976946CDE90154584603946A
:10479000FDF742FBCDF800806946CDE901540B4896
:1047A0000394FDF739FBCDF800906946CDE901543B
:1047B00007480394FDF730FB07B0BDE8F08F000019
:1047C000E044025800080258001002580004025841
:1047D000000C02582DE9F0414FF480051448134AAB
:1047E00007276E114FF0007C2C0180E8E4100021B7
:1047F000A300C0E90514C0E9073141629A00816253
:10480000C162C0E90D21C163016441648164C16476
:10481000016541658165FEF77FFF002803D0BDE893
:10482000F041FCF71CB9BDE8F08100000030014008
:104830002C0300241848002110B5164C0C224FF40C
:10484000E1330460C0E90131C160C0E90412816153
:10485000C161016241628162FFF7DCFB08B1FCF7D4
:10486000FEF80D480021FFF7E7F908B1FCF7F7F86B
:1048700009480021FFF7BAF908B1FCF7F0F806483B
:10488000FFF792F9002803D0BDE81040FCF7E7B825
:1048900010BD00000078004064000020184800218E
:1048A00010B5164C0C224FF4E1330460C0E901311D
:1048B000C160C0E904128161C1610162416281622B
:1048C000FFF7A8FB08B1FCF7CAF80D480021FFF775
:1048D000B3F908B1FCF7C3F809480021FFF786F9DE
:1048E00008B1FCF7BCF80648FFF75EF9002803D0D2
:1048F000BDE81040FCF7B3B810BD0000001C01403B
:10490000F8000020FEE7FEE7704700002DE9F047C1
:10491000454D044689464FF0000A2868C043800789
:104920000AD0414E283E306820F080603060FDF7AC
:1049300087FB0746B04608E00120BDE8F08700BFCE
:10494000FDF77EFBC01B022867D8D8F800000001E5
:10495000F6D4206829684FF4FE0721F47C313E022A
:1049600041EA00302860207AA389B4F804C04002EC
:104970002D4D2D495B1E227CACF1010C1035091D1B
:10498000A0F5007080B2521ECCF3080C07EA034376
:1049900040EA0C00184306EA0262104328600868E7
:1049A000626920F0C000104308600A68A06922F024
:1049B000200202430A60281D0A6822F010020A60E1
:1049C00002684FF6F873E4699A4342EAC40202604F
:1049D0000868B9F1000F40F010020A6011D00868B1
:1049E000B9F1010F11D040F400100860D8F80000B0
:1049F000444640F08060C8F80000FDF721FB054602
:104A00000DE0086840F40020EFE740F48010ECE788
:104A1000FDF716FB401B022801D903208DE7206813
:104A20000001F5D5504688E7284402582DE9F047A3
:104A3000454D044689464FF0000A2868C043800768
:104A40000AD0414E283E306820F080503060FDF79B
:104A5000F7FA0746B04608E00120BDE8F08700BF3E
:104A6000FDF7EEFAC01B022867D8D8F800008000D6
:104A7000F6D4208829684FF4FE0721F07C713E02AD
:104A800041EA00502860207AA389B4F804C04002AB
:104A90002D4D2D495B1E227CACF1010C1835091DF2
:104AA000A0F5007080B2521ECCF3080C07EA034355
:104AB00040EA0C00184306EA0262104328600868C6
:104AC000626920F44060104308600A68A06922F41B
:104AD000007202430A60281D0A6822F480720A608C
:104AE00002684FF6F873E4699A4342EAC40202602E
:104AF0000868B9F1000F40F480720A6011D00868AC
:104B0000B9F1010F11D040F080700860D8F80000B2
:104B1000444640F08050C8F80000FDF791FA054681
:104B20000DE0086840F48000EFE740F40000ECE797
:104B3000FDF786FA401B022801D903208DE7206883
:104B40008000F5D5504688E72844025810B5026821
:104B500040F26F335169946944F00804946102682B
:104B6000946944F0100494610268146824F001040C
:104B70001460026814699C4314610268936823F40A
:104B80004043936090F88120042A0CD08A060AD50D
:104B9000D0F8842042F08002C0F884200268936933
:104BA00043F02003936190F88120032A0CD04A0639
:104BB0000AD5D0F8842042F00402C0F884200268AC
:104BC000936943F0400393618A050AD5D0F88420A5
:104BD00042F00102C0F884200268936943F4007334
:104BE0009361C9050AD5D0F8841041F00801C0F8D6
:104BF000841001688A6942F480728A610021A0F8F9
:104C00006210A0F86A1010BD2DE9F0411C4616464E
:104C10000D460746DDF818800AE000BFFDF710FAE0
:104C2000A0EB0800A04202D3601C01D00BE054B1FD
:104C30003868406935EA000007D00020B042EDD066
:104C40000020BDE8F0810320FBE70120F6E7704774
:104C5000FDF7FCB970B59CB04C216846FBF74FFCE2
:104C6000202113A8FBF74BFC0220FDF793FA1E4806
:104C7000016821F4404101600168002401F44041D1
:104C80001B9101688904FCD502200A902823099011
:104C9000C20301210D910425CDE90012CDE90B03DA
:104CA0000C261294CDE90E50CDE910646846FEF74B
:104CB0009FFA08B172B6FEE740201A90082305015A
:104CC000CDE9163013ABCDE918053F21032283E867
:104CD000160013A81146FEF77BF8002801D072B623
:104CE000FEE71CB070BD0000184802582748F0B518
:104CF000274A016841F470010160106800F00F005C
:104D0000072804D2106820F00F00C01D1060214950
:104D10000020204C10340B681F4D43F001030B6042
:104D200020600B682B400B60136803F00F03072B08
:104D300004D9136823F00F03DB1D1360154C174AC9
:104D40001834174B261D371D2060124C154D283482
:104D50003060261D3860371D23603B1D35601C1DEB
:104D60003A60251D2E1D1860331D226028603260B8
:104D700018600A6843F2D204064B0B4D22F48022DD
:104D800060330A6018602C60F0BD000088ED00E020
:104D900000200052004402587FEDF6EA8002010133
:104DA000000202020000FF01004000520148FEF72D
:104DB0006DBF00006400002030B5416EB9B10168DC
:104DC0000D4B03F108048A688968C2F34262490FF7
:104DD0005D5C615C2D01B5FBF1F1A0F86A10995C96
:104DE000A25C0901B1FBF2F1A0F8681030BD01210D
:104DF000A0F86A10F8E70000285C000890F8281076
:104E0000090706D50168836B4A6822F400421A43F9
:104E10004A6090F82810C90706D00168C36A4A683A
:104E200022F400321A434A6090F82810890706D508
:104E30000168036B4A6822F480321A434A6090F892
:104E40002810490706D50168436B4A6822F480227E
:104E50001A434A6090F82810C90606D50168C36B4A
:104E60008A6822F480521A438A6090F828108906D2
:104E700006D50168036C8A6822F400521A438A60DE
:104E800090F82810490611D50168436C4A6822F44D
:104E900080121A434A60416CB1F5801F06D1016847
:104EA000836C4A6822F4C0021A434A6090F82810C2
:104EB000090606D50168C26C486820F4002010433A
:104EC000486070472DE9F84300250446C0F890502B
:104ED000FDF7B6F88046206820266FF07E47006810
:104EE000000713D50022434631042046009700F006
:104EF00051FD58B1216851E8000F20F0800041E8D1
:104F00000002002AF6D1C4F8886021E02068006819
:104F1000400722D5002243464FF4800120460097E7
:104F200000F038FDC8B1206850E8001F21F49071EE
:104F300040E80012002AF6D12068083050E8001F2F
:104F400021F0010140E80012002AF5D1C4F88C607C
:104F5000032084F88450BDE8F883C4F88860C4F85E
:104F60008C60E5662567002084F88450F3E710B56F
:104F7000806B0021A0F85E10A0F85610FEF784FEAA
:104F800010BD000010B5026852E8001F21F49071B6
:104F900042E80013002BF6D10E4B0268083252E8AB
:104FA000001F194042E80014002CF6D1C16E0129FF
:104FB00008D1026852E8001F21F0100142E80013F6
:104FC000002BF6D100212022C0F88C20C166416759
:104FD00010BD0000FEFFFFEF10B5D0F88C10B0F848
:104FE00060202229016804D0886940F008008861A7
:104FF00010BD496A836D11401980816D891C8165DE
:10500000B0F85E10491EA0F85E10B0F85E100029DE
:10501000EED1016851E8002F22F4907241E800239C
:10502000002BF6D10168083151E8002F22F001026F
:1050300041E80023002BF5D1184B00210268202401
:10504000C0F88C40416701679A420BD05268120247
:1050500008D5036853E8002F22F0806243E800245B
:10506000002CF6D1C26E012A02D0FFF7B1F810BDB4
:10507000C166026852E8001F21F0100142E80013E7
:10508000002BF6D10168CA69D243D20601D410229E
:105090000A62B0F85C10FEF7A7FD10BD000C0058C6
:1050A0002DE9F04704460068C569D0F800A0D0F8A3
:1050B0000880D4F88C10B4F86060222905D081698A
:1050C00041F008018161BDE8F087B4F868704FF0E5
:1050D000000975E02068A16D406A30400880A06D2D
:1050E000801CA065B4F85E00401EA4F85E00206835
:1050F000C569690730D0E9070AD05FEACA5107D508
:1051000001210162D4F8900040F00100C4F8900041
:10511000A8070BD55FEAC87008D021680220086292
:10512000D4F8900040F00400C4F8900068070BD554
:105130005FEAC87008D0216804200862D4F89000A3
:1051400040F00200C4F89000D4F8900020B120464E
:10515000FEF79AFDC4F89090B4F85E0080BB216819
:1051600051E8000F20F4807041E80002002AF6D1D7
:10517000304A2068083050E8001F114040E8001312
:10518000002BF6D12C4B202120684A46C4F88C1005
:10519000C4F87490C4F8709098420BD04068000234
:1051A00008D5216851E8000F20F0806041E8000335
:1051B000002BF6D1E06E012825D02046FFF708F835
:1051C0000FB1A80686D4B4F85E0000283FF47BAF88
:1051D000B4F8681081427FF676AF2068083050E856
:1051E000001F21F0805140E80012002AF5D1134839
:1051F0006067206850E8001F41F0200140E800127D
:10520000002AF6D15FE7E266206850E8001F21F02F
:10521000100140E80012002AF6D12068C169C94394
:10522000C90601D410210162B4F85C102046FEF7D3
:10523000DBFCC5E7FEFFFFEF000C0058D94F00086C
:1052400010B5D0F88C10B0F860202229016804D085
:10525000886940F00800886110BD496A836D11407B
:105260001970816D491C8165B0F85E10491EA0F867
:105270005E10B0F85E100029EED1026852E8001FFF
:1052800021F4907142E80013002BF6D10168083137
:1052900051E8002F22F0010241E80023002BF5D154
:1052A000184B002102682024C0F88C404167016738
:1052B0009A420BD05268120208D5026852E8003FA9
:1052C00023F0806342E80034002CF6D1C26E012A3C
:1052D00002D0FEF77DFF10BDC166026852E8001FD4
:1052E00021F0100142E80013002BF6D10168CA69D1
:1052F000D243D20601D410220A62B0F85C10FEF745
:1053000073FC10BD000C00582DE9F04704460068FE
:10531000C569D0F800A0D0F80880D4F88C10B4F893
:105320006060222905D0816941F008018161BDE8F2
:10533000F087B4F868704FF0000975E02068A16D3F
:10534000406A30400870A06D401CA065B4F85E0053
:10535000401EA4F85E002068C569690730D0E907DF
:105360000AD05FEACA5107D501210162D4F8900042
:1053700040F00100C4F89000A8070BD55FEAC870A0
:1053800008D0216802200862D4F8900040F00400A0
:10539000C4F8900068070BD55FEAC87008D0216890
:1053A00004200862D4F8900040F00200C4F8900095
:1053B000D4F8900020B12046FEF766FCC4F8909027
:1053C000B4F85E0080BB216851E8000F20F48070C3
:1053D00041E80002002AF6D1304A2068083050E83F
:1053E000001F114040E80013002BF6D12C49202368
:1053F00020684A46C4F88C30C4F87490C4F87090A1
:1054000088420BD04068000208D5216851E8000F9F
:1054100020F0806041E80003002BF6D1E06E012807
:1054200025D02046FEF7D4FE0FB1A80686D4B4F8E6
:105430005E0000283FF47BAFB4F8681081427FF62D
:1054400076AF2068083050E8001F21F0805140E816
:105450000012002AF5D113486067206850E8001F49
:1054600041F0200140E80012002AF6D15FE7E26631
:10547000206850E8001F21F0100140E80012002AC7
:10548000F6D12068C169C943C90601D4102101625F
:10549000B4F85C102046FEF7A7FBC5E7FEFFFFEF60
:1054A000000C0058415200082DE9F0430446806882
:1054B000E24E87B0E24B2168D4E90427D4F81CC03F
:1054C00010430A68002547EA0C073843324002437C
:1054D0000A602068E268416821F44051114341604C
:1054E0002268A1699A4201D0206A01439668DFF8D8
:1054F00054C3D54FD54806EA0C060E439660216882
:10550000666ACA6A22F00F023243CA622268BA424D
:105510000ED1006800F0380018286FD07ADCB8B3DC
:1055200008286CD010286BD18BE0282868D18EE039
:10553000C7498A4209D1006800F0070006285FD2F7
:10554000DFE800F0507D7F818385C2498A4209D11E
:10555000006800F0070006287BD2DFE800F0437007
:1055600072747678BC498A4209D1006800F007005D
:1055700006286ED2DFE800F036636567696BB749CD
:105580008A420BD1006800F00700062861D200E0D3
:1055900043E0DFE800F0275456585A5CB0498A428D
:1055A00006D1006800F0380018284CD0B7DD31E093
:1055B000AC498A4209D1006800F00700062848D2A9
:1055C000DFE800F0103D3F414345A7498A420BD137
:1055D000006800F0070006283BD2DFE800F0033047
:1055E00032343638002035E0A0498A4209D10068BB
:1055F00000F03800182826D091DD0BE023E01EE0F3
:1056000027E09B498A420AD1006800F03800182838
:1056100019D084DD202888D11CE001201AE09A42AC
:1056200017D18A48001D006800F00700062810D234
:10563000DFE800F0030507090B0D02200AE0042053
:1056400008E0082006E0102004E0202002E04020CE
:1056500000E080208749DFF820829A42874A4FF491
:1056600000434FEA21174FF000064ED110281AD000
:1056700006DC022809D004280BD008287ED10DE0D2
:1056800020283ED0402879D13DE0FCF7ADFD014611
:1056900010E06846FCF7BAFD01990BE003A8FCF79F
:1056A00057FE049906E01068800605D51068C0F31F
:1056B000C100C140002970D0606A676838F81020C6
:1056C00007EB4703B1FBF2F0834257D8B0EB073F3B
:1056D00054D8002308461946FAF768FE02467808AF
:1056E000130E120243EA012110183A4671410023B9
:1056F000FAF75CFE624AA0F5407191423ED82168FB
:105700008FE03946D8E71946D6E7D4F81CC04FF6E3
:10571000EF799C4546D1082819D005DC58B10128FD
:105720000CD0042875D10DE0102815D0202835D0D4
:1057300040286ED134E0FDF79BFC01E0FDF7AAFCA8
:10574000014610E06846FCF761FD01990BE003A8F3
:10575000FCF7FEFD049906E01068800604D5106889
:10576000C0F3C100C140C1B1636A606838F813304A
:10577000B1FBF3F1490001EB500100E049E0B1FB5E
:10578000F0F0A0F11001494543D84FF6F0732168BD
:10579000C0F342021840104343E043E03946E3E7D8
:1057A0001946E1E7082819D005DC58B101280CD0CA
:1057B00004282ED10DE0102815D020282BD0402809
:1057C00027D12AE0FDF754FC01E0FDF763FC014618
:1057D00010E06846FCF71AFD01990BE003A8FCF7FE
:1057E000B7FD049906E01068800604D51068C0F380
:1057F000C100C140B1B1636A606838F81330B1FBD1
:10580000F3F101EB5001B1FBF0F0A0F110014945BB
:1058100005D9012506E03946EDE71946EBE7216891
:1058200080B2C8600120A4F86A00A4F86800284685
:105830006667A66707B0BDE8F0830000F369FFCF95
:10584000000C0058FFF4FF110010014054440258AE
:105850000044004000480040004C00400050004020
:105860000014014000780040007C00400018014016
:10587000001C01400090D003105C00080044025856
:10588000FFFC0F0070B58368002481654FF48056DB
:10589000A0F85C20B342A0F85E204FF0FF014467FF
:1058A00004D1036903BB40F2FF111DE04FF07F05F7
:1058B000C3B1B3F1805F1AD0A0F860402221C0F8D4
:1058C0009040C0F88C100168083151E8003F43F067
:1058D000010341E80034002CF5D1416EB1F1005FC5
:1058E0000CD02FE0036933B9A0F86010E6E7016936
:1058F00009B13F21F8E7A0F86050DFE7B0F8681081
:1059000091421FD88168B14201D10169B9B11D49E5
:105910000269416742B1026852E8001F41F4807198
:1059200042E80013002BF6D10168083151E8002F3E
:1059300042F0805241E80023002BF5D120E01249CB
:105940004167F1E78168B14201D1016969B10F494D
:10595000026941675AB1016851E8002F42F4907220
:1059600041E80023002BF6D10AE0094941670268AB
:1059700052E8001F41F0200142E80013002BF6D14D
:10598000002070BD09530008A150000841520008D2
:10599000D94F00082DE9F047994617460D460446B1
:1059A000089E4FF0000833E0701C31D0FCF748FB34
:1059B000A0EB0900B04218D8BEB1206801684907C1
:1059C00026D5802D24D0402D22D0C169C943090796
:1059D0000DD4082505622046FFF7D4FAC4F890508C
:1059E000012084F88480BDE8F0870320FBE7C069CC
:1059F000C04300050CD421684FF4006008622046C3
:105A0000FFF7C0FA2021C4F8901084F88480ECE7F6
:105A10002068C06935EA000004D00020B842C3D035
:105A20000020E0E70120F9E7FEE7090700284FEA38
:105A3000116104DB00F1E02080F80014704700F0F1
:105A40000F0000F1E02080F8141D7047012170EE76
:105A5000601A8140491E31EE600A00EE901AF8EE9D
:105A6000E00A61EEA00A80EE801ABCEEC10A10EED8
:105A7000100A80B2704700002DED028B82B0FCF757
:105A8000EDFAFFF7E7F8FEF723FEFEF789FDFEF7D4
:105A9000E9FDFEF79FFEFEF7CDFEFEF7FFFEFEF7E7
:105AA00049FC00200090F02301464FF48C72FEF771
:105AB00020FCFEF74BFDFEF7A9FD6420FBF762FC1E
:105AC000224800F049F82148C01E00F045F81F495F
:105AD00001221F48091FFEF757FBFAF75FFE6420FB
